{
  "_format": "hh-sol-artifact-1",
  "contractName": "Box",
  "sourceName": "contracts/Box.sol",
  "abi": [
    {
      "anonymous": false,
      "inputs": [
        {
          "indexed": true,
          "internalType": "address",
          "name": "owner",
          "type": "address"
        },
        {
          "indexed": true,
          "internalType": "uint256",
          "name": "tokenId",
          "type": "uint256"
        },
        {
          "indexed": false,
          "internalType": "string",
          "name": "name",
          "type": "string"
        },
        {
          "indexed": false,
          "internalType": "uint256",
          "name": "amount",
          "type": "uint256"
        },
        {
          "indexed": false,
          "internalType": "uint256",
          "name": "placeholder1",
          "type": "uint256"
        },
        {
          "indexed": false,
          "internalType": "uint256",
          "name": "placeholder2",
          "type": "uint256"
        }
      ],
      "name": "CompanyMinted",
      "type": "event"
    },
    {
      "anonymous": false,
      "inputs": [
        {
          "indexed": true,
          "internalType": "uint256",
          "name": "tokenId",
          "type": "uint256"
        },
        {
          "indexed": false,
          "internalType": "string",
          "name": "verificationHash",
          "type": "string"
        }
      ],
      "name": "HashVerified",
      "type": "event"
    },
    {
      "anonymous": false,
      "inputs": [
        {
          "indexed": true,
          "internalType": "address",
          "name": "user",
          "type": "address"
        },
        {
          "indexed": false,
          "internalType": "uint256",
          "name": "amount",
          "type": "uint256"
        }
      ],
      "name": "LoanRepaid",
      "type": "event"
    },
    {
      "anonymous": false,
      "inputs": [
        {
          "indexed": true,
          "internalType": "address",
          "name": "user",
          "type": "address"
        },
        {
          "indexed": false,
          "internalType": "uint256",
          "name": "newScore",
          "type": "uint256"
        }
      ],
      "name": "ReputationUpdated",
      "type": "event"
    },
    {
      "anonymous": false,
      "inputs": [
        {
          "indexed": true,
          "internalType": "address",
          "name": "user",
          "type": "address"
        }
      ],
      "name": "SoulboundTokenMinted",
      "type": "event"
    },
    {
      "inputs": [
        {
          "internalType": "uint256",
          "name": "tokenId",
          "type": "uint256"
        },
        {
          "internalType": "string",
          "name": "verificationHash",
          "type": "string"
        }
      ],
      "name": "addVerificationHash",
      "outputs": [],
      "stateMutability": "nonpayable",
      "type": "function"
    },
    {
      "inputs": [
        {
          "internalType": "uint256",
          "name": "tokenId",
          "type": "uint256"
        }
      ],
      "name": "getCompanyDetails",
      "outputs": [
        {
          "internalType": "string",
          "name": "name",
          "type": "string"
        },
        {
          "internalType": "address",
          "name": "owner",
          "type": "address"
        },
        {
          "internalType": "uint256",
          "name": "tokenAmount",
          "type": "uint256"
        },
        {
          "internalType": "uint256",
          "name": "placeholder1",
          "type": "uint256"
        },
        {
          "internalType": "uint256",
          "name": "placeholder2",
          "type": "uint256"
        },
        {
          "internalType": "string",
          "name": "verificationHash",
          "type": "string"
        }
      ],
      "stateMutability": "view",
      "type": "function"
    },
    {
      "inputs": [
        {
          "internalType": "address",
          "name": "user",
          "type": "address"
        }
      ],
      "name": "getReputation",
      "outputs": [
        {
          "internalType": "uint256",
          "name": "",
          "type": "uint256"
        }
      ],
      "stateMutability": "view",
      "type": "function"
    },
    {
      "inputs": [],
      "name": "getTotalMinted",
      "outputs": [
        {
          "internalType": "uint256",
          "name": "",
          "type": "uint256"
        }
      ],
      "stateMutability": "view",
      "type": "function"
    },
    {
      "inputs": [
        {
          "internalType": "address",
          "name": "user",
          "type": "address"
        }
      ],
      "name": "getUserCompanies",
      "outputs": [
        {
          "internalType": "uint256[]",
          "name": "",
          "type": "uint256[]"
        }
      ],
      "stateMutability": "view",
      "type": "function"
    },
    {
      "inputs": [
        {
          "internalType": "address",
          "name": "user",
          "type": "address"
        }
      ],
      "name": "hasSoulboundToken",
      "outputs": [
        {
          "internalType": "bool",
          "name": "",
          "type": "bool"
        }
      ],
      "stateMutability": "view",
      "type": "function"
    },
    {
      "inputs": [
        {
          "internalType": "string",
          "name": "name",
          "type": "string"
        },
        {
          "internalType": "uint256",
          "name": "tokenAmount",
          "type": "uint256"
        },
        {
          "internalType": "uint256",
          "name": "placeholder1",
          "type": "uint256"
        },
        {
          "internalType": "uint256",
          "name": "placeholder2",
          "type": "uint256"
        }
      ],
      "name": "mintCompany",
      "outputs": [],
      "stateMutability": "nonpayable",
      "type": "function"
    },
    {
      "inputs": [
        {
          "internalType": "uint256",
          "name": "amount",
          "type": "uint256"
        }
      ],
      "name": "repayLoan",
      "outputs": [],
      "stateMutability": "nonpayable",
      "type": "function"
    }
  ],
  "bytecode": "0x608060405234801561001057600080fd5b50611ac1806100206000396000f3fe608060405234801561001057600080fd5b50600436106100885760003560e01c8063889d77b81161005b578063889d77b8146101135780639c89a0e214610143578063ab7b1c8914610173578063daf64aa51461018f57610088565b8063068e4f691461008d5780630ca1c5c9146100bd5780634e79da4e146100db5780637457852c146100f7575b600080fd5b6100a760048036038101906100a29190610ceb565b6101c4565b6040516100b49190610de0565b60405180910390f35b6100c561025b565b6040516100d29190610e11565b60405180910390f35b6100f560048036038101906100f09190610f9e565b610264565b005b610111600480360381019061010c9190611021565b6104c7565b005b61012d60048036038101906101289190610ceb565b61070e565b60405161013a9190611098565b60405180910390f35b61015d60048036038101906101589190610ceb565b610764565b60405161016a9190610e11565b60405180910390f35b61018d600480360381019061018891906110b3565b6107ad565b005b6101a960048036038101906101a491906110b3565b610a68565b6040516101bb9695949392919061116e565b60405180910390f35b6060600760008373ffffffffffffffffffffffffffffffffffffffff1673ffffffffffffffffffffffffffffffffffffffff16815260200190815260200160002080548060200260200160405190810160405280929190818152602001828054801561024f57602002820191906000526020600020905b81548152602001906001019080831161023b575b50505050509050919050565b60008054905090565b600083116102a7576040517f08c379a000000000000000000000000000000000000000000000000000000000815260040161029e9061124f565b60405180910390fd5b600082116102ea576040517f08c379a00000000000000000000000000000000000000000000000000000000081526004016102e1906112e1565b60405180910390fd5b6000811161032d576040517f08c379a000000000000000000000000000000000000000000000000000000000815260040161032490611373565b60405180910390fd5b600080549050600080815480929190610345906113c2565b91905055508460046000838152602001908152602001600020908161036a9190611616565b50336005600083815260200190815260200160002060006101000a81548173ffffffffffffffffffffffffffffffffffffffff021916908373ffffffffffffffffffffffffffffffffffffffff160217905550836006600083815260200190815260200160002081905550826008600083815260200190815260200160002081905550816009600083815260200190815260200160002081905550600760003373ffffffffffffffffffffffffffffffffffffffff1673ffffffffffffffffffffffffffffffffffffffff168152602001908152602001600020819080600181540180825580915050600190039060005260206000200160009091909190915055803373ffffffffffffffffffffffffffffffffffffffff167f4e5ae23262072f2caef3bd8dc588ae63a02c09f10b80bc19cb6bfe99bbfc4d68878787876040516104b894939291906116e8565b60405180910390a35050505050565b600054821061050b576040517f08c379a000000000000000000000000000000000000000000000000000000000815260040161050290611780565b60405180910390fd5b6005600083815260200190815260200160002060009054906101000a900473ffffffffffffffffffffffffffffffffffffffff1673ffffffffffffffffffffffffffffffffffffffff163373ffffffffffffffffffffffffffffffffffffffff16146105ac576040517f08c379a00000000000000000000000000000000000000000000000000000000081526004016105a3906117ec565b60405180910390fd5b600b816040516105bc9190611848565b908152602001604051809103902060009054906101000a900460ff1615610618576040517f08c379a000000000000000000000000000000000000000000000000000000000815260040161060f906118ab565b60405180910390fd5b6000600a6000848152602001908152602001600020805461063890611439565b90501461067a576040517f08c379a000000000000000000000000000000000000000000000000000000000815260040161067190611917565b60405180910390fd5b80600a6000848152602001908152602001600020908161069a9190611616565b506001600b826040516106ad9190611848565b908152602001604051809103902060006101000a81548160ff021916908315150217905550817f8139db68dc99e1e36794475f9ffa527ab44766755647dba156c823d71d835506826040516107029190611937565b60405180910390a25050565b6000600360008373ffffffffffffffffffffffffffffffffffffffff1673ffffffffffffffffffffffffffffffffffffffff16815260200190815260200160002060009054906101000a900460ff169050919050565b6000600260008373ffffffffffffffffffffffffffffffffffffffff1673ffffffffffffffffffffffffffffffffffffffff168152602001908152602001600020549050919050565b600081116107f0576040517f08c379a00000000000000000000000000000000000000000000000000000000081526004016107e7906119cb565b60405180910390fd5b80600160003373ffffffffffffffffffffffffffffffffffffffff1673ffffffffffffffffffffffffffffffffffffffff168152602001908152602001600020600082825461083f91906119eb565b925050819055503373ffffffffffffffffffffffffffffffffffffffff167fc200a1f31dd659e356e0f112c82558e25f49f7b0f84438691cd96f5cb35588238260405161088c9190610e11565b60405180910390a2600a600260003373ffffffffffffffffffffffffffffffffffffffff1673ffffffffffffffffffffffffffffffffffffffff16815260200190815260200160002060008282546108e491906119eb565b925050819055503373ffffffffffffffffffffffffffffffffffffffff167ffc577563f1b9a0461e24abef1e1fcc0d33d3d881f20b5df6dda59de4aae2c821600260003373ffffffffffffffffffffffffffffffffffffffff1673ffffffffffffffffffffffffffffffffffffffff168152602001908152602001600020546040516109709190610e11565b60405180910390a2600360003373ffffffffffffffffffffffffffffffffffffffff1673ffffffffffffffffffffffffffffffffffffffff16815260200190815260200160002060009054906101000a900460ff16610a65576001600360003373ffffffffffffffffffffffffffffffffffffffff1673ffffffffffffffffffffffffffffffffffffffff16815260200190815260200160002060006101000a81548160ff0219169083151502179055503373ffffffffffffffffffffffffffffffffffffffff167f14eacfe48f2377ba0e380c9a27c815737f241d08f039b078b3ae77f7deb18a5060405160405180910390a25b50565b606060008060008060606000548710610ab6576040517f08c379a0000000000000000000000000000000000000000000000000000000008152600401610aad90611a6b565b60405180910390fd5b600460008881526020019081526020016000206005600089815260200190815260200160002060009054906101000a900473ffffffffffffffffffffffffffffffffffffffff16600660008a815260200190815260200160002054600860008b815260200190815260200160002054600960008c815260200190815260200160002054600a60008d8152602001908152602001600020858054610b5890611439565b80601f0160208091040260200160405190810160405280929190818152602001828054610b8490611439565b8015610bd15780601f10610ba657610100808354040283529160200191610bd1565b820191906000526020600020905b815481529060010190602001808311610bb457829003601f168201915b50505050509550808054610be490611439565b80601f0160208091040260200160405190810160405280929190818152602001828054610c1090611439565b8015610c5d5780601f10610c3257610100808354040283529160200191610c5d565b820191906000526020600020905b815481529060010190602001808311610c4057829003601f168201915b5050505050905095509550955095509550955091939550919395565b6000604051905090565b600080fd5b600080fd5b600073ffffffffffffffffffffffffffffffffffffffff82169050919050565b6000610cb882610c8d565b9050919050565b610cc881610cad565b8114610cd357600080fd5b50565b600081359050610ce581610cbf565b92915050565b600060208284031215610d0157610d00610c83565b5b6000610d0f84828501610cd6565b91505092915050565b600081519050919050565b600082825260208201905092915050565b6000819050602082019050919050565b6000819050919050565b610d5781610d44565b82525050565b6000610d698383610d4e565b60208301905092915050565b6000602082019050919050565b6000610d8d82610d18565b610d978185610d23565b9350610da283610d34565b8060005b83811015610dd3578151610dba8882610d5d565b9750610dc583610d75565b925050600181019050610da6565b5085935050505092915050565b60006020820190508181036000830152610dfa8184610d82565b905092915050565b610e0b81610d44565b82525050565b6000602082019050610e266000830184610e02565b92915050565b600080fd5b600080fd5b6000601f19601f8301169050919050565b7f4e487b7100000000000000000000000000000000000000000000000000000000600052604160045260246000fd5b610e7f82610e36565b810181811067ffffffffffffffff82111715610e9e57610e9d610e47565b5b80604052505050565b6000610eb1610c79565b9050610ebd8282610e76565b919050565b600067ffffffffffffffff821115610edd57610edc610e47565b5b610ee682610e36565b9050602081019050919050565b82818337600083830152505050565b6000610f15610f1084610ec2565b610ea7565b905082815260208101848484011115610f3157610f30610e31565b5b610f3c848285610ef3565b509392505050565b600082601f830112610f5957610f58610e2c565b5b8135610f69848260208601610f02565b91505092915050565b610f7b81610d44565b8114610f8657600080fd5b50565b600081359050610f9881610f72565b92915050565b60008060008060808587031215610fb857610fb7610c83565b5b600085013567ffffffffffffffff811115610fd657610fd5610c88565b5b610fe287828801610f44565b9450506020610ff387828801610f89565b935050604061100487828801610f89565b925050606061101587828801610f89565b91505092959194509250565b6000806040838503121561103857611037610c83565b5b600061104685828601610f89565b925050602083013567ffffffffffffffff81111561106757611066610c88565b5b61107385828601610f44565b9150509250929050565b60008115159050919050565b6110928161107d565b82525050565b60006020820190506110ad6000830184611089565b92915050565b6000602082840312156110c9576110c8610c83565b5b60006110d784828501610f89565b91505092915050565b600081519050919050565b600082825260208201905092915050565b60005b8381101561111a5780820151818401526020810190506110ff565b60008484015250505050565b6000611131826110e0565b61113b81856110eb565b935061114b8185602086016110fc565b61115481610e36565b840191505092915050565b61116881610cad565b82525050565b600060c08201905081810360008301526111888189611126565b9050611197602083018861115f565b6111a46040830187610e02565b6111b16060830186610e02565b6111be6080830185610e02565b81810360a08301526111d08184611126565b9050979650505050505050565b7f546f6b656e20616d6f756e74206d75737420626520677265617465722074686160008201527f6e20300000000000000000000000000000000000000000000000000000000000602082015250565b60006112396023836110eb565b9150611244826111dd565b604082019050919050565b600060208201905081810360008301526112688161122c565b9050919050565b7f506c616365686f6c64657231206d75737420626520677265617465722074686160008201527f6e20300000000000000000000000000000000000000000000000000000000000602082015250565b60006112cb6023836110eb565b91506112d68261126f565b604082019050919050565b600060208201905081810360008301526112fa816112be565b9050919050565b7f506c616365686f6c64657232206d75737420626520677265617465722074686160008201527f6e20300000000000000000000000000000000000000000000000000000000000602082015250565b600061135d6023836110eb565b915061136882611301565b604082019050919050565b6000602082019050818103600083015261138c81611350565b9050919050565b7f4e487b7100000000000000000000000000000000000000000000000000000000600052601160045260246000fd5b60006113cd82610d44565b91507fffffffffffffffffffffffffffffffffffffffffffffffffffffffffffffffff82036113ff576113fe611393565b5b600182019050919050565b7f4e487b7100000000000000000000000000000000000000000000000000000000600052602260045260246000fd5b6000600282049050600182168061145157607f821691505b6020821081036114645761146361140a565b5b50919050565b60008190508160005260206000209050919050565b60006020601f8301049050919050565b600082821b905092915050565b6000600883026114cc7fffffffffffffffffffffffffffffffffffffffffffffffffffffffffffffffff8261148f565b6114d6868361148f565b95508019841693508086168417925050509392505050565b6000819050919050565b600061151361150e61150984610d44565b6114ee565b610d44565b9050919050565b6000819050919050565b61152d836114f8565b6115416115398261151a565b84845461149c565b825550505050565b600090565b611556611549565b611561818484611524565b505050565b5b818110156115855761157a60008261154e565b600181019050611567565b5050565b601f8211156115ca5761159b8161146a565b6115a48461147f565b810160208510156115b3578190505b6115c76115bf8561147f565b830182611566565b50505b505050565b600082821c905092915050565b60006115ed600019846008026115cf565b1980831691505092915050565b600061160683836115dc565b9150826002028217905092915050565b61161f826110e0565b67ffffffffffffffff81111561163857611637610e47565b5b6116428254611439565b61164d828285611589565b600060209050601f831160018114611680576000841561166e578287015190505b61167885826115fa565b8655506116e0565b601f19841661168e8661146a565b60005b828110156116b657848901518255600182019150602085019450602081019050611691565b868310156116d357848901516116cf601f8916826115dc565b8355505b6001600288020188555050505b505050505050565b600060808201905081810360008301526117028187611126565b90506117116020830186610e02565b61171e6040830185610e02565b61172b6060830184610e02565b95945050505050565b7f546f6b656e20646f6573206e6f74206578697374000000000000000000000000600082015250565b600061176a6014836110eb565b915061177582611734565b602082019050919050565b600060208201905081810360008301526117998161175d565b9050919050565b7f4f6e6c7920746f6b656e206f776e65722063616e206164642068617368000000600082015250565b60006117d6601d836110eb565b91506117e1826117a0565b602082019050919050565b60006020820190508181036000830152611805816117c9565b9050919050565b600081905092915050565b6000611822826110e0565b61182c818561180c565b935061183c8185602086016110fc565b80840191505092915050565b60006118548284611817565b915081905092915050565b7f4861736820616c72656164792075736564000000000000000000000000000000600082015250565b60006118956011836110eb565b91506118a08261185f565b602082019050919050565b600060208201905081810360008301526118c481611888565b9050919050565b7f4861736820616c72656164792073657420666f72207468697320746f6b656e00600082015250565b6000611901601f836110eb565b915061190c826118cb565b602082019050919050565b60006020820190508181036000830152611930816118f4565b9050919050565b600060208201905081810360008301526119518184611126565b905092915050565b7f52657061796d656e7420616d6f756e74206d757374206265206772656174657260008201527f207468616e203000000000000000000000000000000000000000000000000000602082015250565b60006119b56027836110eb565b91506119c082611959565b604082019050919050565b600060208201905081810360008301526119e4816119a8565b9050919050565b60006119f682610d44565b9150611a0183610d44565b9250828201905080821115611a1957611a18611393565b5b92915050565b7f436f6d70616e7920646f6573206e6f7420657869737400000000000000000000600082015250565b6000611a556016836110eb565b9150611a6082611a1f565b602082019050919050565b60006020820190508181036000830152611a8481611a48565b905091905056fea2646970667358221220764080d3ad2309d0c9f28850f2359e847c8013a2580db6cc297e84aacd5abced64736f6c63430008180033",
  "linkReferences": {},
  "deployedLinkReferences": {}
}