{
  "_format": "hh-sol-artifact-1",
  "contractName": "Box",
  "sourceName": "contracts/Box.sol",
  "abi": [
    {
      "anonymous": false,
      "inputs": [
        {
          "indexed": true,
          "internalType": "address",
          "name": "owner",
          "type": "address"
        },
        {
          "indexed": true,
          "internalType": "uint256",
          "name": "tokenId",
          "type": "uint256"
        },
        {
          "indexed": false,
          "internalType": "string",
          "name": "name",
          "type": "string"
        },
        {
          "indexed": false,
          "internalType": "uint256",
          "name": "amount",
          "type": "uint256"
        },
        {
          "indexed": false,
          "internalType": "uint256",
          "name": "placeholder1",
          "type": "uint256"
        },
        {
          "indexed": false,
          "internalType": "uint256",
          "name": "placeholder2",
          "type": "uint256"
        },
        {
          "indexed": false,
          "internalType": "uint256",
          "name": "totalScore",
          "type": "uint256"
        }
      ],
      "name": "CompanyMinted",
      "type": "event"
    },
    {
      "anonymous": false,
      "inputs": [
        {
          "indexed": true,
          "internalType": "address",
          "name": "user",
          "type": "address"
        },
        {
          "indexed": false,
          "internalType": "uint256",
          "name": "amount",
          "type": "uint256"
        }
      ],
      "name": "LoanRepaid",
      "type": "event"
    },
    {
      "anonymous": false,
      "inputs": [
        {
          "indexed": true,
          "internalType": "address",
          "name": "user",
          "type": "address"
        },
        {
          "indexed": false,
          "internalType": "uint256",
          "name": "newScore",
          "type": "uint256"
        }
      ],
      "name": "ReputationUpdated",
      "type": "event"
    },
    {
      "anonymous": false,
      "inputs": [
        {
          "indexed": true,
          "internalType": "address",
          "name": "user",
          "type": "address"
        }
      ],
      "name": "SoulboundTokenMinted",
      "type": "event"
    },
    {
      "inputs": [
        {
          "internalType": "uint256",
          "name": "tokenId",
          "type": "uint256"
        }
      ],
      "name": "getCompanyDetails",
      "outputs": [
        {
          "internalType": "string",
          "name": "name",
          "type": "string"
        },
        {
          "internalType": "address",
          "name": "owner",
          "type": "address"
        },
        {
          "internalType": "uint256",
          "name": "tokenAmount",
          "type": "uint256"
        },
        {
          "internalType": "uint256",
          "name": "placeholder1",
          "type": "uint256"
        },
        {
          "internalType": "uint256",
          "name": "placeholder2",
          "type": "uint256"
        },
        {
          "internalType": "uint256",
          "name": "totalScore",
          "type": "uint256"
        }
      ],
      "stateMutability": "view",
      "type": "function"
    },
    {
      "inputs": [
        {
          "internalType": "address",
          "name": "user",
          "type": "address"
        }
      ],
      "name": "getReputation",
      "outputs": [
        {
          "internalType": "uint256",
          "name": "",
          "type": "uint256"
        }
      ],
      "stateMutability": "view",
      "type": "function"
    },
    {
      "inputs": [],
      "name": "getTotalMinted",
      "outputs": [
        {
          "internalType": "uint256",
          "name": "",
          "type": "uint256"
        }
      ],
      "stateMutability": "view",
      "type": "function"
    },
    {
      "inputs": [
        {
          "internalType": "address",
          "name": "user",
          "type": "address"
        }
      ],
      "name": "getUserCompanies",
      "outputs": [
        {
          "internalType": "uint256[]",
          "name": "",
          "type": "uint256[]"
        }
      ],
      "stateMutability": "view",
      "type": "function"
    },
    {
      "inputs": [
        {
          "internalType": "address",
          "name": "user",
          "type": "address"
        }
      ],
      "name": "hasSoulboundToken",
      "outputs": [
        {
          "internalType": "bool",
          "name": "",
          "type": "bool"
        }
      ],
      "stateMutability": "view",
      "type": "function"
    },
    {
      "inputs": [
        {
          "internalType": "string",
          "name": "name",
          "type": "string"
        },
        {
          "internalType": "uint256",
          "name": "tokenAmount",
          "type": "uint256"
        },
        {
          "internalType": "uint256",
          "name": "placeholder1",
          "type": "uint256"
        },
        {
          "internalType": "uint256",
          "name": "placeholder2",
          "type": "uint256"
        }
      ],
      "name": "mintCompany",
      "outputs": [],
      "stateMutability": "nonpayable",
      "type": "function"
    },
    {
      "inputs": [
        {
          "internalType": "uint256",
          "name": "amount",
          "type": "uint256"
        }
      ],
      "name": "repayLoan",
      "outputs": [],
      "stateMutability": "nonpayable",
      "type": "function"
    }
  ],
  "bytecode": "0x608060405234801561001057600080fd5b50611583806100206000396000f3fe608060405234801561001057600080fd5b506004361061007d5760003560e01c8063889d77b81161005b578063889d77b8146100ec5780639c89a0e21461011c578063ab7b1c891461014c578063daf64aa5146101685761007d565b8063068e4f69146100825780630ca1c5c9146100b25780634e79da4e146100d0575b600080fd5b61009c60048036038101906100979190610a27565b61019d565b6040516100a99190610b1c565b60405180910390f35b6100ba610234565b6040516100c79190610b4d565b60405180910390f35b6100ea60048036038101906100e59190610cda565b61023d565b005b61010660048036038101906101019190610a27565b6104d6565b6040516101139190610d78565b60405180910390f35b61013660048036038101906101319190610a27565b61052c565b6040516101439190610b4d565b60405180910390f35b61016660048036038101906101619190610d93565b610575565b005b610182600480360381019061017d9190610d93565b610830565b60405161019496959493929190610e4e565b60405180910390f35b6060600760008373ffffffffffffffffffffffffffffffffffffffff1673ffffffffffffffffffffffffffffffffffffffff16815260200190815260200160002080548060200260200160405190810160405280929190818152602001828054801561022857602002820191906000526020600020905b815481526020019060010190808311610214575b50505050509050919050565b60008054905090565b60008311610280576040517f08c379a000000000000000000000000000000000000000000000000000000000815260040161027790610f28565b60405180910390fd5b600082116102c3576040517f08c379a00000000000000000000000000000000000000000000000000000000081526004016102ba90610fba565b60405180910390fd5b60008111610306576040517f08c379a00000000000000000000000000000000000000000000000000000000081526004016102fd9061104c565b60405180910390fd5b60008054905060008081548092919061031e9061109b565b9190505550600082848661033291906110e3565b61033c91906110e3565b90508560046000848152602001908152602001600020908161035e9190611323565b50336005600084815260200190815260200160002060006101000a81548173ffffffffffffffffffffffffffffffffffffffff021916908373ffffffffffffffffffffffffffffffffffffffff16021790555084600660008481526020019081526020016000208190555083600960008481526020019081526020016000208190555082600a600084815260200190815260200160002081905550806008600084815260200190815260200160002081905550600760003373ffffffffffffffffffffffffffffffffffffffff1673ffffffffffffffffffffffffffffffffffffffff168152602001908152602001600020829080600181540180825580915050600190039060005260206000200160009091909190915055813373ffffffffffffffffffffffffffffffffffffffff167f389e1616e8c0f686ac169af6998e6c0f7db96b5121974011ee2a32600d0d971a88888888876040516104c69594939291906113f5565b60405180910390a3505050505050565b6000600360008373ffffffffffffffffffffffffffffffffffffffff1673ffffffffffffffffffffffffffffffffffffffff16815260200190815260200160002060009054906101000a900460ff169050919050565b6000600260008373ffffffffffffffffffffffffffffffffffffffff1673ffffffffffffffffffffffffffffffffffffffff168152602001908152602001600020549050919050565b600081116105b8576040517f08c379a00000000000000000000000000000000000000000000000000000000081526004016105af906114c1565b60405180910390fd5b80600160003373ffffffffffffffffffffffffffffffffffffffff1673ffffffffffffffffffffffffffffffffffffffff168152602001908152602001600020600082825461060791906110e3565b925050819055503373ffffffffffffffffffffffffffffffffffffffff167fc200a1f31dd659e356e0f112c82558e25f49f7b0f84438691cd96f5cb3558823826040516106549190610b4d565b60405180910390a2600a600260003373ffffffffffffffffffffffffffffffffffffffff1673ffffffffffffffffffffffffffffffffffffffff16815260200190815260200160002060008282546106ac91906110e3565b925050819055503373ffffffffffffffffffffffffffffffffffffffff167ffc577563f1b9a0461e24abef1e1fcc0d33d3d881f20b5df6dda59de4aae2c821600260003373ffffffffffffffffffffffffffffffffffffffff1673ffffffffffffffffffffffffffffffffffffffff168152602001908152602001600020546040516107389190610b4d565b60405180910390a2600360003373ffffffffffffffffffffffffffffffffffffffff1673ffffffffffffffffffffffffffffffffffffffff16815260200190815260200160002060009054906101000a900460ff1661082d576001600360003373ffffffffffffffffffffffffffffffffffffffff1673ffffffffffffffffffffffffffffffffffffffff16815260200190815260200160002060006101000a81548160ff0219169083151502179055503373ffffffffffffffffffffffffffffffffffffffff167f14eacfe48f2377ba0e380c9a27c815737f241d08f039b078b3ae77f7deb18a5060405160405180910390a25b50565b606060008060008060008054871061087d576040517f08c379a00000000000000000000000000000000000000000000000000000000081526004016108749061152d565b60405180910390fd5b600460008881526020019081526020016000206005600089815260200190815260200160002060009054906101000a900473ffffffffffffffffffffffffffffffffffffffff16600660008a815260200190815260200160002054600960008b815260200190815260200160002054600a60008c815260200190815260200160002054600860008d81526020019081526020016000205485805461092090611146565b80601f016020809104026020016040519081016040528092919081815260200182805461094c90611146565b80156109995780601f1061096e57610100808354040283529160200191610999565b820191906000526020600020905b81548152906001019060200180831161097c57829003601f168201915b5050505050955095509550955095509550955091939550919395565b6000604051905090565b600080fd5b600080fd5b600073ffffffffffffffffffffffffffffffffffffffff82169050919050565b60006109f4826109c9565b9050919050565b610a04816109e9565b8114610a0f57600080fd5b50565b600081359050610a21816109fb565b92915050565b600060208284031215610a3d57610a3c6109bf565b5b6000610a4b84828501610a12565b91505092915050565b600081519050919050565b600082825260208201905092915050565b6000819050602082019050919050565b6000819050919050565b610a9381610a80565b82525050565b6000610aa58383610a8a565b60208301905092915050565b6000602082019050919050565b6000610ac982610a54565b610ad38185610a5f565b9350610ade83610a70565b8060005b83811015610b0f578151610af68882610a99565b9750610b0183610ab1565b925050600181019050610ae2565b5085935050505092915050565b60006020820190508181036000830152610b368184610abe565b905092915050565b610b4781610a80565b82525050565b6000602082019050610b626000830184610b3e565b92915050565b600080fd5b600080fd5b6000601f19601f8301169050919050565b7f4e487b7100000000000000000000000000000000000000000000000000000000600052604160045260246000fd5b610bbb82610b72565b810181811067ffffffffffffffff82111715610bda57610bd9610b83565b5b80604052505050565b6000610bed6109b5565b9050610bf98282610bb2565b919050565b600067ffffffffffffffff821115610c1957610c18610b83565b5b610c2282610b72565b9050602081019050919050565b82818337600083830152505050565b6000610c51610c4c84610bfe565b610be3565b905082815260208101848484011115610c6d57610c6c610b6d565b5b610c78848285610c2f565b509392505050565b600082601f830112610c9557610c94610b68565b5b8135610ca5848260208601610c3e565b91505092915050565b610cb781610a80565b8114610cc257600080fd5b50565b600081359050610cd481610cae565b92915050565b60008060008060808587031215610cf457610cf36109bf565b5b600085013567ffffffffffffffff811115610d1257610d116109c4565b5b610d1e87828801610c80565b9450506020610d2f87828801610cc5565b9350506040610d4087828801610cc5565b9250506060610d5187828801610cc5565b91505092959194509250565b60008115159050919050565b610d7281610d5d565b82525050565b6000602082019050610d8d6000830184610d69565b92915050565b600060208284031215610da957610da86109bf565b5b6000610db784828501610cc5565b91505092915050565b600081519050919050565b600082825260208201905092915050565b60005b83811015610dfa578082015181840152602081019050610ddf565b60008484015250505050565b6000610e1182610dc0565b610e1b8185610dcb565b9350610e2b818560208601610ddc565b610e3481610b72565b840191505092915050565b610e48816109e9565b82525050565b600060c0820190508181036000830152610e688189610e06565b9050610e776020830188610e3f565b610e846040830187610b3e565b610e916060830186610b3e565b610e9e6080830185610b3e565b610eab60a0830184610b3e565b979650505050505050565b7f546f6b656e20616d6f756e74206d75737420626520677265617465722074686160008201527f6e20300000000000000000000000000000000000000000000000000000000000602082015250565b6000610f12602383610dcb565b9150610f1d82610eb6565b604082019050919050565b60006020820190508181036000830152610f4181610f05565b9050919050565b7f506c616365686f6c64657231206d75737420626520677265617465722074686160008201527f6e20300000000000000000000000000000000000000000000000000000000000602082015250565b6000610fa4602383610dcb565b9150610faf82610f48565b604082019050919050565b60006020820190508181036000830152610fd381610f97565b9050919050565b7f506c616365686f6c64657232206d75737420626520677265617465722074686160008201527f6e20300000000000000000000000000000000000000000000000000000000000602082015250565b6000611036602383610dcb565b915061104182610fda565b604082019050919050565b6000602082019050818103600083015261106581611029565b9050919050565b7f4e487b7100000000000000000000000000000000000000000000000000000000600052601160045260246000fd5b60006110a682610a80565b91507fffffffffffffffffffffffffffffffffffffffffffffffffffffffffffffffff82036110d8576110d761106c565b5b600182019050919050565b60006110ee82610a80565b91506110f983610a80565b92508282019050808211156111115761111061106c565b5b92915050565b7f4e487b7100000000000000000000000000000000000000000000000000000000600052602260045260246000fd5b6000600282049050600182168061115e57607f821691505b60208210810361117157611170611117565b5b50919050565b60008190508160005260206000209050919050565b60006020601f8301049050919050565b600082821b905092915050565b6000600883026111d97fffffffffffffffffffffffffffffffffffffffffffffffffffffffffffffffff8261119c565b6111e3868361119c565b95508019841693508086168417925050509392505050565b6000819050919050565b600061122061121b61121684610a80565b6111fb565b610a80565b9050919050565b6000819050919050565b61123a83611205565b61124e61124682611227565b8484546111a9565b825550505050565b600090565b611263611256565b61126e818484611231565b505050565b5b818110156112925761128760008261125b565b600181019050611274565b5050565b601f8211156112d7576112a881611177565b6112b18461118c565b810160208510156112c0578190505b6112d46112cc8561118c565b830182611273565b50505b505050565b600082821c905092915050565b60006112fa600019846008026112dc565b1980831691505092915050565b600061131383836112e9565b9150826002028217905092915050565b61132c82610dc0565b67ffffffffffffffff81111561134557611344610b83565b5b61134f8254611146565b61135a828285611296565b600060209050601f83116001811461138d576000841561137b578287015190505b6113858582611307565b8655506113ed565b601f19841661139b86611177565b60005b828110156113c35784890151825560018201915060208501945060208101905061139e565b868310156113e057848901516113dc601f8916826112e9565b8355505b6001600288020188555050505b505050505050565b600060a082019050818103600083015261140f8188610e06565b905061141e6020830187610b3e565b61142b6040830186610b3e565b6114386060830185610b3e565b6114456080830184610b3e565b9695505050505050565b7f52657061796d656e7420616d6f756e74206d757374206265206772656174657260008201527f207468616e203000000000000000000000000000000000000000000000000000602082015250565b60006114ab602783610dcb565b91506114b68261144f565b604082019050919050565b600060208201905081810360008301526114da8161149e565b9050919050565b7f436f6d70616e7920646f6573206e6f7420657869737400000000000000000000600082015250565b6000611517601683610dcb565b9150611522826114e1565b602082019050919050565b600060208201905081810360008301526115468161150a565b905091905056fea264697066735822122046e9059b15a6ded55f9ab97b78356119149c0cd1a6e3204dad8e9b9f6337f65364736f6c63430008180033",
  "linkReferences": {},
  "deployedLinkReferences": {}
}