{
  "_format": "hh-sol-artifact-1",
  "contractName": "Box",
  "sourceName": "contracts/Box.sol",
  "abi": [
    {
      "anonymous": false,
      "inputs": [
        {
          "indexed": true,
          "internalType": "address",
          "name": "owner",
          "type": "address"
        },
        {
          "indexed": true,
          "internalType": "uint256",
          "name": "tokenId",
          "type": "uint256"
        },
        {
          "indexed": false,
          "internalType": "string",
          "name": "name",
          "type": "string"
        },
        {
          "indexed": false,
          "internalType": "uint256",
          "name": "amount",
          "type": "uint256"
        },
        {
          "indexed": false,
          "internalType": "uint256",
          "name": "placeholder1",
          "type": "uint256"
        },
        {
          "indexed": false,
          "internalType": "uint256",
          "name": "placeholder2",
          "type": "uint256"
        }
      ],
      "name": "CompanyMinted",
      "type": "event"
    },
    {
      "anonymous": false,
      "inputs": [
        {
          "indexed": true,
          "internalType": "address",
          "name": "user",
          "type": "address"
        },
        {
          "indexed": false,
          "internalType": "uint256",
          "name": "amount",
          "type": "uint256"
        }
      ],
      "name": "LoanRepaid",
      "type": "event"
    },
    {
      "anonymous": false,
      "inputs": [
        {
          "indexed": true,
          "internalType": "address",
          "name": "user",
          "type": "address"
        },
        {
          "indexed": false,
          "internalType": "uint256",
          "name": "newScore",
          "type": "uint256"
        }
      ],
      "name": "ReputationUpdated",
      "type": "event"
    },
    {
      "anonymous": false,
      "inputs": [
        {
          "indexed": true,
          "internalType": "address",
          "name": "user",
          "type": "address"
        }
      ],
      "name": "SoulboundTokenMinted",
      "type": "event"
    },
    {
      "inputs": [
        {
          "internalType": "uint256",
          "name": "tokenId",
          "type": "uint256"
        }
      ],
      "name": "getCompanyDetails",
      "outputs": [
        {
          "internalType": "string",
          "name": "name",
          "type": "string"
        },
        {
          "internalType": "address",
          "name": "owner",
          "type": "address"
        },
        {
          "internalType": "uint256",
          "name": "tokenAmount",
          "type": "uint256"
        },
        {
          "internalType": "uint256",
          "name": "placeholder1",
          "type": "uint256"
        },
        {
          "internalType": "uint256",
          "name": "placeholder2",
          "type": "uint256"
        }
      ],
      "stateMutability": "view",
      "type": "function"
    },
    {
      "inputs": [
        {
          "internalType": "address",
          "name": "user",
          "type": "address"
        }
      ],
      "name": "getReputation",
      "outputs": [
        {
          "internalType": "uint256",
          "name": "",
          "type": "uint256"
        }
      ],
      "stateMutability": "view",
      "type": "function"
    },
    {
      "inputs": [],
      "name": "getTotalMinted",
      "outputs": [
        {
          "internalType": "uint256",
          "name": "",
          "type": "uint256"
        }
      ],
      "stateMutability": "view",
      "type": "function"
    },
    {
      "inputs": [
        {
          "internalType": "address",
          "name": "user",
          "type": "address"
        }
      ],
      "name": "getUserCompanies",
      "outputs": [
        {
          "internalType": "uint256[]",
          "name": "",
          "type": "uint256[]"
        }
      ],
      "stateMutability": "view",
      "type": "function"
    },
    {
      "inputs": [
        {
          "internalType": "address",
          "name": "user",
          "type": "address"
        }
      ],
      "name": "hasSoulboundToken",
      "outputs": [
        {
          "internalType": "bool",
          "name": "",
          "type": "bool"
        }
      ],
      "stateMutability": "view",
      "type": "function"
    },
    {
      "inputs": [
        {
          "internalType": "string",
          "name": "name",
          "type": "string"
        },
        {
          "internalType": "uint256",
          "name": "tokenAmount",
          "type": "uint256"
        },
        {
          "internalType": "uint256",
          "name": "placeholder1",
          "type": "uint256"
        },
        {
          "internalType": "uint256",
          "name": "placeholder2",
          "type": "uint256"
        }
      ],
      "name": "mintCompany",
      "outputs": [],
      "stateMutability": "nonpayable",
      "type": "function"
    },
    {
      "inputs": [
        {
          "internalType": "uint256",
          "name": "amount",
          "type": "uint256"
        }
      ],
      "name": "repayLoan",
      "outputs": [],
      "stateMutability": "nonpayable",
      "type": "function"
    }
  ],
  "bytecode": "0x608060405234801561001057600080fd5b50611519806100206000396000f3fe608060405234801561001057600080fd5b506004361061007d5760003560e01c8063889d77b81161005b578063889d77b8146100ec5780639c89a0e21461011c578063ab7b1c891461014c578063daf64aa5146101685761007d565b8063068e4f69146100825780630ca1c5c9146100b25780634e79da4e146100d0575b600080fd5b61009c600480360381019061009791906109d9565b61019c565b6040516100a99190610ace565b60405180910390f35b6100ba610233565b6040516100c79190610aff565b60405180910390f35b6100ea60048036038101906100e59190610c8c565b61023c565b005b610106600480360381019061010191906109d9565b61049f565b6040516101139190610d2a565b60405180910390f35b610136600480360381019061013191906109d9565b6104f5565b6040516101439190610aff565b60405180910390f35b61016660048036038101906101619190610d45565b61053e565b005b610182600480360381019061017d9190610d45565b6107f9565b604051610193959493929190610e00565b60405180910390f35b6060600760008373ffffffffffffffffffffffffffffffffffffffff1673ffffffffffffffffffffffffffffffffffffffff16815260200190815260200160002080548060200260200160405190810160405280929190818152602001828054801561022757602002820191906000526020600020905b815481526020019060010190808311610213575b50505050509050919050565b60008054905090565b6000831161027f576040517f08c379a000000000000000000000000000000000000000000000000000000000815260040161027690610ecc565b60405180910390fd5b600082116102c2576040517f08c379a00000000000000000000000000000000000000000000000000000000081526004016102b990610f5e565b60405180910390fd5b60008111610305576040517f08c379a00000000000000000000000000000000000000000000000000000000081526004016102fc90610ff0565b60405180910390fd5b60008054905060008081548092919061031d9061103f565b9190505550846004600083815260200190815260200160002090816103429190611293565b50336005600083815260200190815260200160002060006101000a81548173ffffffffffffffffffffffffffffffffffffffff021916908373ffffffffffffffffffffffffffffffffffffffff160217905550836006600083815260200190815260200160002081905550826008600083815260200190815260200160002081905550816009600083815260200190815260200160002081905550600760003373ffffffffffffffffffffffffffffffffffffffff1673ffffffffffffffffffffffffffffffffffffffff168152602001908152602001600020819080600181540180825580915050600190039060005260206000200160009091909190915055803373ffffffffffffffffffffffffffffffffffffffff167f4e5ae23262072f2caef3bd8dc588ae63a02c09f10b80bc19cb6bfe99bbfc4d68878787876040516104909493929190611365565b60405180910390a35050505050565b6000600360008373ffffffffffffffffffffffffffffffffffffffff1673ffffffffffffffffffffffffffffffffffffffff16815260200190815260200160002060009054906101000a900460ff169050919050565b6000600260008373ffffffffffffffffffffffffffffffffffffffff1673ffffffffffffffffffffffffffffffffffffffff168152602001908152602001600020549050919050565b60008111610581576040517f08c379a000000000000000000000000000000000000000000000000000000000815260040161057890611423565b60405180910390fd5b80600160003373ffffffffffffffffffffffffffffffffffffffff1673ffffffffffffffffffffffffffffffffffffffff16815260200190815260200160002060008282546105d09190611443565b925050819055503373ffffffffffffffffffffffffffffffffffffffff167fc200a1f31dd659e356e0f112c82558e25f49f7b0f84438691cd96f5cb35588238260405161061d9190610aff565b60405180910390a2600a600260003373ffffffffffffffffffffffffffffffffffffffff1673ffffffffffffffffffffffffffffffffffffffff16815260200190815260200160002060008282546106759190611443565b925050819055503373ffffffffffffffffffffffffffffffffffffffff167ffc577563f1b9a0461e24abef1e1fcc0d33d3d881f20b5df6dda59de4aae2c821600260003373ffffffffffffffffffffffffffffffffffffffff1673ffffffffffffffffffffffffffffffffffffffff168152602001908152602001600020546040516107019190610aff565b60405180910390a2600360003373ffffffffffffffffffffffffffffffffffffffff1673ffffffffffffffffffffffffffffffffffffffff16815260200190815260200160002060009054906101000a900460ff166107f6576001600360003373ffffffffffffffffffffffffffffffffffffffff1673ffffffffffffffffffffffffffffffffffffffff16815260200190815260200160002060006101000a81548160ff0219169083151502179055503373ffffffffffffffffffffffffffffffffffffffff167f14eacfe48f2377ba0e380c9a27c815737f241d08f039b078b3ae77f7deb18a5060405160405180910390a25b50565b60606000806000806000548610610845576040517f08c379a000000000000000000000000000000000000000000000000000000000815260040161083c906114c3565b60405180910390fd5b600460008781526020019081526020016000206005600088815260200190815260200160002060009054906101000a900473ffffffffffffffffffffffffffffffffffffffff166006600089815260200190815260200160002054600860008a815260200190815260200160002054600960008b8152602001908152602001600020548480546108d4906110b6565b80601f0160208091040260200160405190810160405280929190818152602001828054610900906110b6565b801561094d5780601f106109225761010080835404028352916020019161094d565b820191906000526020600020905b81548152906001019060200180831161093057829003601f168201915b505050505094509450945094509450945091939590929450565b6000604051905090565b600080fd5b600080fd5b600073ffffffffffffffffffffffffffffffffffffffff82169050919050565b60006109a68261097b565b9050919050565b6109b68161099b565b81146109c157600080fd5b50565b6000813590506109d3816109ad565b92915050565b6000602082840312156109ef576109ee610971565b5b60006109fd848285016109c4565b91505092915050565b600081519050919050565b600082825260208201905092915050565b6000819050602082019050919050565b6000819050919050565b610a4581610a32565b82525050565b6000610a578383610a3c565b60208301905092915050565b6000602082019050919050565b6000610a7b82610a06565b610a858185610a11565b9350610a9083610a22565b8060005b83811015610ac1578151610aa88882610a4b565b9750610ab383610a63565b925050600181019050610a94565b5085935050505092915050565b60006020820190508181036000830152610ae88184610a70565b905092915050565b610af981610a32565b82525050565b6000602082019050610b146000830184610af0565b92915050565b600080fd5b600080fd5b6000601f19601f8301169050919050565b7f4e487b7100000000000000000000000000000000000000000000000000000000600052604160045260246000fd5b610b6d82610b24565b810181811067ffffffffffffffff82111715610b8c57610b8b610b35565b5b80604052505050565b6000610b9f610967565b9050610bab8282610b64565b919050565b600067ffffffffffffffff821115610bcb57610bca610b35565b5b610bd482610b24565b9050602081019050919050565b82818337600083830152505050565b6000610c03610bfe84610bb0565b610b95565b905082815260208101848484011115610c1f57610c1e610b1f565b5b610c2a848285610be1565b509392505050565b600082601f830112610c4757610c46610b1a565b5b8135610c57848260208601610bf0565b91505092915050565b610c6981610a32565b8114610c7457600080fd5b50565b600081359050610c8681610c60565b92915050565b60008060008060808587031215610ca657610ca5610971565b5b600085013567ffffffffffffffff811115610cc457610cc3610976565b5b610cd087828801610c32565b9450506020610ce187828801610c77565b9350506040610cf287828801610c77565b9250506060610d0387828801610c77565b91505092959194509250565b60008115159050919050565b610d2481610d0f565b82525050565b6000602082019050610d3f6000830184610d1b565b92915050565b600060208284031215610d5b57610d5a610971565b5b6000610d6984828501610c77565b91505092915050565b600081519050919050565b600082825260208201905092915050565b60005b83811015610dac578082015181840152602081019050610d91565b60008484015250505050565b6000610dc382610d72565b610dcd8185610d7d565b9350610ddd818560208601610d8e565b610de681610b24565b840191505092915050565b610dfa8161099b565b82525050565b600060a0820190508181036000830152610e1a8188610db8565b9050610e296020830187610df1565b610e366040830186610af0565b610e436060830185610af0565b610e506080830184610af0565b9695505050505050565b7f546f6b656e20616d6f756e74206d75737420626520677265617465722074686160008201527f6e20300000000000000000000000000000000000000000000000000000000000602082015250565b6000610eb6602383610d7d565b9150610ec182610e5a565b604082019050919050565b60006020820190508181036000830152610ee581610ea9565b9050919050565b7f506c616365686f6c64657231206d75737420626520677265617465722074686160008201527f6e20300000000000000000000000000000000000000000000000000000000000602082015250565b6000610f48602383610d7d565b9150610f5382610eec565b604082019050919050565b60006020820190508181036000830152610f7781610f3b565b9050919050565b7f506c616365686f6c64657232206d75737420626520677265617465722074686160008201527f6e20300000000000000000000000000000000000000000000000000000000000602082015250565b6000610fda602383610d7d565b9150610fe582610f7e565b604082019050919050565b6000602082019050818103600083015261100981610fcd565b9050919050565b7f4e487b7100000000000000000000000000000000000000000000000000000000600052601160045260246000fd5b600061104a82610a32565b91507fffffffffffffffffffffffffffffffffffffffffffffffffffffffffffffffff820361107c5761107b611010565b5b600182019050919050565b7f4e487b7100000000000000000000000000000000000000000000000000000000600052602260045260246000fd5b600060028204905060018216806110ce57607f821691505b6020821081036110e1576110e0611087565b5b50919050565b60008190508160005260206000209050919050565b60006020601f8301049050919050565b600082821b905092915050565b6000600883026111497fffffffffffffffffffffffffffffffffffffffffffffffffffffffffffffffff8261110c565b611153868361110c565b95508019841693508086168417925050509392505050565b6000819050919050565b600061119061118b61118684610a32565b61116b565b610a32565b9050919050565b6000819050919050565b6111aa83611175565b6111be6111b682611197565b848454611119565b825550505050565b600090565b6111d36111c6565b6111de8184846111a1565b505050565b5b81811015611202576111f76000826111cb565b6001810190506111e4565b5050565b601f82111561124757611218816110e7565b611221846110fc565b81016020851015611230578190505b61124461123c856110fc565b8301826111e3565b50505b505050565b600082821c905092915050565b600061126a6000198460080261124c565b1980831691505092915050565b60006112838383611259565b9150826002028217905092915050565b61129c82610d72565b67ffffffffffffffff8111156112b5576112b4610b35565b5b6112bf82546110b6565b6112ca828285611206565b600060209050601f8311600181146112fd57600084156112eb578287015190505b6112f58582611277565b86555061135d565b601f19841661130b866110e7565b60005b828110156113335784890151825560018201915060208501945060208101905061130e565b86831015611350578489015161134c601f891682611259565b8355505b6001600288020188555050505b505050505050565b6000608082019050818103600083015261137f8187610db8565b905061138e6020830186610af0565b61139b6040830185610af0565b6113a86060830184610af0565b95945050505050565b7f52657061796d656e7420616d6f756e74206d757374206265206772656174657260008201527f207468616e203000000000000000000000000000000000000000000000000000602082015250565b600061140d602783610d7d565b9150611418826113b1565b604082019050919050565b6000602082019050818103600083015261143c81611400565b9050919050565b600061144e82610a32565b915061145983610a32565b925082820190508082111561147157611470611010565b5b92915050565b7f436f6d70616e7920646f6573206e6f7420657869737400000000000000000000600082015250565b60006114ad601683610d7d565b91506114b882611477565b602082019050919050565b600060208201905081810360008301526114dc816114a0565b905091905056fea264697066735822122083e2e6ed9b60da58e5afb28c17380791d93c8700190527f5a6e3fbffb102ed5e64736f6c63430008180033",
  "linkReferences": {},
  "deployedLinkReferences": {}
}